:100000000C94B3000C94E4000C94E4000C94E40011
:100010000C94E4000C94E4000C94E4000C94E400D0
:100020000C94E4000C94E4000C94E4000C94E400C0
:100030000C94E4000C94E4000C94E4000C94E400B0
:100040000C94E4000C94E4000C94E4000C94E400A0
:100050000C94E4000C94E4000C94E4000C9432063C
:100060000C94E4000C94110A0C9439090C94E400EB
:100070000C94E4000C94E4000C94E4000C94E40070
:100080000C94E4000C94E4000C94E4000C94E40060
:100090000C94DE090C94FA080C94E4000C94E4002F
:1000A0000C94E4000C94E4000C94E4000C94E40040
:1000B0000C94E4000C94E4000C94E4000C94E40030
:1000C0000C94E4000C94E4000C94E4000C94AB0950
:1000D0000C94BB080C94E4000C9478090C947C08F4
:1000E0000C94E4000C9405070C94D3030C943C028C
:1000F0000C940E010C94BE060C94B20C0C94F901F5
:100100000C94E6000C94E9060C943F020C94430214
:100110000C947C060C94B5010C94B3010C94C906A4
:100120000C94B001FFFFFF000000FF000000FF0083
:100130000000FF000000FF000000FF000000FF00C3
:10014000FFFFFF0000800000008000000080000032
:10015000008000000080000000800000FFFFFF0022
:1001600000000000B20C11241FBECFEFD1E2DEBFB1
:10017000CDBF00E00CBF12E0A0E0B2E0EAEBFAE194
:1001800000E00BBF02C007900D92A234B107D9F76F
:100190002AE0A2E4B2E001C01D92A23BB207E1F75F
:1001A00010E0C3EBD0E000E006C021970109802FEA
:1001B000FE010E94440DC23BD10780E00807A9F769
:1001C0000E94440A0C94B60C0C940000CF92DF926B
:1001D000EF92FF920F931F93CF93DF936C01EB018C
:1001E0007B01E40EF51E00E010E0CE15DF0561F0A6
:1001F0006991D601ED91FC910190F081E02DC6014D
:100200001995080F191FF1CFC801DF91CF911F91E8
:100210000F91FF90EF90DF90CF900895089578941C
:1002200084B5826084BD84B5816084BD85B58260FB
:1002300085BD85B5816085BDEEE6F0E08081816099
:100240008083E1E8F0E01082808182608083808199
:1002500081608083E0E8F0E0808181608083E1EB71
:10026000F0E0808184608083E0EBF0E08081816059
:100270008083E1E9F0E08081826080838081816019
:100280008083E0E9F0E0808181608083E1EAF0E052
:10029000808182608083808181608083E0EAF0E0F9
:1002A000808181608083E1E2F1E0808182608083EF
:1002B000808181608083E0E2F1E0808181608083E1
:1002C000EAE7F0E0808184608083808182608083BF
:1002D0008081816080838081806880831092C100EA
:1002E00008950F931F93CF93DF93209148022F5FC0
:1002F000322F37703093480220FF02C020E801C03F
:1003000020E031FD2064347009F02062205FFC01A0
:10031000EC01239600E011E06485662331F070E083
:10032000C8010E94C90C6F5F01C060E06187322F75
:10033000369F030E30E0311D1124311102C01682A8
:1003400002C031503683662311F0615061873196C7
:10035000CE17DF0709F7DF91CF911F910F91089515
:1003600080E991E008956B9A08950F931F93CF93BE
:10037000DF93CDB7DEB762970FB6F894DEBF0FBE3E
:10038000CDBF8C01F901DC011C968C917A836983C5
:100390005C834B835E834D8390819D8791819E8793
:1003A00092819F87813029F4CE0101960E947101CC
:1003B00006C01C861B861A86198618861F8283E053
:1003C000888B1A8A198AD801ED91FC910484F585ED
:1003D000E02DBE016F5F7F4FC801199562960FB681
:1003E000F894DEBF0FBECDBFDF91CF911F910F916B
:1003F00008950F931F93CF93DF93CDB7DEB7629726
:100400000FB6F894DEBF0FBECDBF8C01F901DC0141
:100410001C968C917A8369835C834B835E834D83C6
:1004200090819D8791819E8792819F87813029F459
:10043000CE0101960E94710106C01C861B861A8699
:10044000198618861F82188A1A8A198AD801ED918E
:10045000FC910484F585E02DBE016F5F7F4FC801DC
:10046000199562960FB6F894DEBF0FBECDBFDF912F
:10047000CF911F910F91089580E090E00895FC01C5
:10048000858596850895CF93DF9300D000D0CDB7B2
:10049000DEB7AB011C821D821E82DC01ED91FC9156
:1004A0000190F081E02D19821A821B829E012F5F3C
:1004B0003F4FBE016C5F7F4F199526960FB6F8949B
:1004C000DEBF0FBECDBFDF91CF910895CF93DF93F5
:1004D000AFE9B2E0C0916D02D0916E02282F229553
:1004E0002F70582F5F70E22FEE0FE20FF0E0E1590E
:1004F000FD4F552319F061E0CD2B09F460E04081F8
:1005000031819281662309F42BC02F3011F033968C
:1005100002C0EFE6F2E05295507F752F7095208172
:10052000479F040E40E0411D259F020E20E0211D43
:10053000420F2181379F030E30E0311D259F020EAF
:1005400020E0211D320F6281292F279F020E20E01B
:10055000211D659F060E60E0611D922F960F1124EC
:100560004C9311963C93119712969C9312978D5F22
:10057000139697E0A13FB90709F0ACCFDF91CF9177
:100580000C943F079F92AF92BF92CF92DF92EF926F
:10059000FF920F931F93CF93DF93CDB7DEB7C35571
:1005A000D5400FB6F894DEBF0FBECDBF8091460296
:1005B0008F5F8093460202E515E083E0E82EF12C80
:1005C0006E012DEAC21A2AEFD20A91EFA92E97E006
:1005D000B92E81EF97E00E940507181619060CF056
:1005E00065C081EF97E00E94C906982E8091440271
:1005F000909145020097A1F421E0921205C0F0927B
:100600004302E09242020CC022E0921205C0109216
:1006100043021092420204C010934302009342022C
:100620002091420230914302E1E0F0E0EC0FFD1F27
:10063000E80FF91F90828217930791F58981813025
:1006400079F42A819B818C81EFE9F2E02083918308
:1006500082833396AE16BF06C9F70E943F071BC0C0
:10066000823029F4809146020E94660214C0FE0185
:100670003196AFE9B2E08381928121812C9311966A
:100680009C93119712968C93129733961396EC15B0
:10069000FD0589F7E2CF109245021092440299CFEE
:1006A0000196909345028093440293CF8091440237
:1006B00090914502892BC9F482E0981216C080916E
:1006C0004602CD5ADA4F0FB6F894DEBF0FBECDBF4B
:1006D000DF91CF911F910F91FF90EF90DF90CF901E
:1006E000BF90AF909F900C946602CD5ADA4F0FB630
:1006F000F894DEBF0FBECDBFDF91CF911F910F9158
:10070000FF90EF90DF90CF90BF90AF909F900895B3
:100710003FB7F89480914E0290914F02A091500201
:10072000B091510226B5A89B05C02F3F19F0019644
:10073000A11DB11D3FBFBA2FA92F982F8827820F67
:10074000911DA11DB11DBC01CD0142E0660F771FB7
:10075000881F991F4A95D1F70895CF92DF92EF92A3
:10076000FF92CF93DF936B017C010E948803EB0122
:10077000C114D104E104F10479F00E9488036C1BD8
:100780007D0B683E7340A0F381E0C81AD108E108F0
:10079000F108C851DC4FECCFDF91CF91FF90EF9083
:1007A000DF90CF9008954F925F926F927F928F92D9
:1007B000AF92BF92CF92DF92EF920F931F93CF939E
:1007C000DF933C01EB010E948803F3012785308908
:1007D000621B730B6A307105B0F3F894E881F981FC
:1007E0007EB178606EB1677F6EB9CA848F812C2D1F
:1007F000281B822F2F83BF844A805B801D850C8538
:10080000DE841F5F0F5FD3949E813885A984EB84BB
:100810004181D20120E0C32F522F322F3181442752
:1008200088943111380F08F43FEF8195889410FDBA
:10083000430F4795889411FD430F4795889412FD07
:10084000430F4795889413FD430F4795889414FDF3
:10085000430F4795889415FD430F4795889416FDDF
:10086000430F4795889417FD430F47958894232F8E
:100870001111242F8C0D422F002C7EB900C000C016
:1008800047FF6EB930812227889400C0002C6EB9D2
:100890003111390F00C0002C7EB900C000C046FFE6
:1008A0006EB908F43FEF9195889400C0002C6EB9A2
:1008B00000FD230F00C0002C7EB900C000C045FF22
:1008C0006EB92795889401FD230F00C0002C6EB9E6
:1008D0002795889400C0002C7EB900C000C044FF5A
:1008E0006EB902FD230F2795889400C0002C6EB9C5
:1008F00003FD230F00C0002C7EB900C000C043FFE1
:100900006EB92795889404FD230F00C0002C6EB9A2
:100910002795889400C0002C7EB900C000C042FF1B
:100920006EB905FD230F2795889400C0002C6EB981
:1009300006FD230F00C0002C7EB900C000C041FF9F
:100940006EB92795889407FD230F00C0002C6EB95F
:100950002795889400C0002C7EB900C000C040FFDD
:100960006EB9432F0111422F9A0D00C0002C6EB9B1
:1009700000C000C0002C7EB900C000C047FF6EB9A7
:1009800032812227889400C0002C6EB931113C0FAF
:1009900000C0002C7EB900C000C046FF6EB908F44C
:1009A0003FEFEB0DF11D00C0002C6EB9D0FC230F02
:1009B00000C0002C7EB900C000C045FF6EB927956D
:1009C0008894D1FC230F00C0002C6EB92795889421
:1009D00000C0002C7EB900C000C044FF6EB9D2FC3C
:1009E000230F2795889400C0002C6EB9D3FC230FE9
:1009F00000C0002C7EB900C000C043FF6EB927952F
:100A00008894D4FC230F00C0002C6EB927958894DD
:100A100000C0002C7EB900C000C042FF6EB9D5FCFA
:100A2000230F2795889400C0002C6EB9D6FC230FA5
:100A300000C0002C7EB900C000C041FF6EB92795F0
:100A40008894D7FC230F00C0002C6EB9279588949A
:100A500000C0002C7EB900C000C040FF6EB9432F1B
:100A6000D110422FC19500C0002C6EB9CE0D00C030
:100A700000C07EB900C000C047FF6EB93181222797
:100A8000889400C0002C6EB93111380F00C0002CC2
:100A90007EB900C000C046FF6EB908F43FEF8195F3
:100AA000889400C0002C6EB910FD230F00C0002CEC
:100AB0007EB900C000C045FF6EB92795889411FD2E
:100AC000230F00C0002C6EB92795889400C0002C1D
:100AD0007EB900C000C044FF6EB912FD230F2795F8
:100AE000889400C0002C6EB913FD230F00C0002CA9
:100AF0007EB900C000C043FF6EB92795889414FDED
:100B0000230F00C0002C6EB92795889400C0002CDC
:100B10007EB900C000C042FF6EB915FD230F2795B6
:100B2000889400C0002C6EB916FD230F00C0002C65
:100B30007EB900C000C041FF6EB92795889417FDAB
:100B4000230F00C0002C6EB92795889400C0002C9C
:100B50007EB900C000C040FF6EB9432F1111422F73
:100B60008C0D00C0002C6EB9119709F086CE20EED6
:100B700031E0D2010E941E0DDC01CB01F4E0B695FC
:100B8000A79597958795FA95D1F720E030E0B901C0
:100B9000EAE94E9E040C611D5E9E600D711D1124DC
:100BA000650D711D860F971FA11DB11D893E43E084
:100BB0009407A105B10508F434C0885E9340A109EB
:100BC000B10942E0B695A795979587954A95D1F7D3
:100BD00047E0849F080E211D949F200D311D112494
:100BE000290F311D6091470270E0860F971F820F19
:100BF000931F40914A0250914B0260914C027091B8
:100C00004D02292F3327420F531F611D711D409341
:100C10004A0250934B0260934C0270934D028093B2
:100C2000470278940E948803F301708B6787DF91F5
:100C3000CF911F910F91EF90DF90CF90BF90AF9029
:100C40008F907F906F905F904F9008952FB7F8949A
:100C500060914A0270914B0280914C0290914D023A
:100C60002FBF08951F920F920FB60F9211242F934A
:100C70003F938F939F93AF93BF9380914A0290913C
:100C80004B02A0914C02B0914D023091490223E0F9
:100C9000230F2D3720F40196A11DB11D05C026E8B4
:100CA000230F0296A11DB11D2093490280934A0291
:100CB00090934B02A0934C02B0934D0280914E0250
:100CC00090914F02A0915002B09151020196A11D46
:100CD000B11D80934E0290934F02A0935002B093A7
:100CE0005102BF91AF919F918F913F912F910F90A2
:100CF0000FBE0F901F9018950F931F93CF93DF9304
:100D0000FC01A685B7858D01005C1F4FE801888135
:100D1000998101968F739927AD014E5B5F4FEA0170
:100D20002881398128173907D1F3E80128813981D1
:100D3000A20FB31F6C93A685B785A05CBF4F119619
:100D40009C938E93A689B7892C9181E090E0078CC3
:100D500002C0880F991F0A94E2F7822B8C9381E0DE
:100D600081A30488F589E02D80818064808381E0FF
:100D700090E0DF91CF911F910F910895FC0181A127
:100D8000882329F0A489B5898C9186FFFBCF11A215
:100D90000895FC01A485B585FD01E05CFF4F20812D
:100DA00031813296808191812817390779F08081CD
:100DB0009181A80FB91F8C91208131812F5F3F4F06
:100DC0002F7333273183208390E008958FEF9FEFB7
:100DD0000895DC011C96ED91FC911D97DF01A05C4C
:100DE000BF4F2D913C91119712968D919C91119727
:100DF0002817390739F08D919C91E80FF91F8081F0
:100E000090E008958FEF9FEF0895FC0124853585CC
:100E1000F901E05CFF4F8081918132962081318120
:100E2000821B930B8F739927089581EF97E00E949F
:100E300005078EEF99E00E94050784E599E00E947E
:100E400005078AEA98E00C940507FB01E05CFF4F78
:100E500020813181DB01AE5BBF4F4D915C912F5FF3
:100E60003F4F2F7333274217530741F04081518181
:100E7000DB01A40FB51F8C933183208308953F922B
:100E80004F925F926F927F928F929F92AF92BF929A
:100E9000CF92DF92EF92FF920F931F93CF93DF9346
:100EA00000D0CDB7DEB7F09015088091180890916A
:100EB0001908A0911A08B0911B08892B8A2B8B2B3B
:100EC000E9F00E9488030091AE0A1091AF0A2091C8
:100ED000B00A3091B10ADC01CB01801B910BA20B4F
:100EE000B30B009118081091190820911A0830913D
:100EF0001B0880179107A207B307B8F20E94880366
:100F00006093AE0A7093AF0A8093B00A9093B10ACF
:100F1000E0912008F0912108309759F040911C0889
:100F200050911D0860911E0870911F088F2D199512
:100F3000F82E00911308109114084F2C512C612C9D
:100F4000712C0115110509F45FC0D8011C96EC90B5
:100F50001C9780911608909117088436910510F41B
:100F60001C961C92D801ED91FC91A280B38019824D
:100F70001A821B82F11014C0F801458556856281E2
:100F800073819E012F5F3F4FC801F5011995D8016C
:100F90001C96EC921C9714960D911C911597D1CF2D
:100FA000F8013696CE0101966C01480199E0890E50
:100FB000911C2191222309F132803320F1F0822FFC
:100FC00090E0A0E0B0E09C01AD012F5F3F4F4F4F9C
:100FD0005F4FC301B2010E94B90C9B01AC01832D8C
:100FE00090E0A0E0B0E0BC01CD016F5F7F4F8F4F7C
:100FF0009F4F0E94B90CD6018C93BFEFCB1ADB0A2E
:10100000E815F905B1F6B8CF8091AC0A9091AD0A18
:101010008C010F5F1F4F1093AD0A0093AC0A4997E4
:101020009CF10E9426064B015C0188EE93E0089F2C
:10103000B001099F700D189F700D1124072E000C30
:10104000880B990BC090A80AD090A90AE090AA0A30
:10105000F090AB0AA50194012C193D094E095F09D6
:101060000E94DD0C30931708209316081092AD0AE9
:101070001092AC0A0E9426066093A80A7093A90AEF
:101080008093AA0A9093AB0A0F900F900F90DF9174
:10109000CF911F910F91FF90EF90DF90CF90BF9075
:1010A000AF909F908F907F906F905F904F903F9008
:1010B0000895E091F107F091F2070190F081E02DA1
:1010C000682F81EF97E01994009799F0FC01019047
:1010D0000020E9F73197AF01481B590BE091F10768
:1010E000F091F2070280F381E02DBC0181EF97E0DF
:1010F000199480E090E008951F920F920FB60F921E
:1011000011240BB60F922F933F938F939F93EF93DE
:10111000FF93209162083091630880916408909158
:1011200065082817390731F4809131018F7D80934C
:10113000310114C0E0916408F0916508EE5DF74F4D
:101140002081809164089091650801968F7399279A
:10115000909365088093640820933601FF91EF9186
:101160009F918F913F912F910F900BBE0F900FBECB
:101170000F901F9018951F920F920FB60F92112487
:101180000BB60F922F933F938F939F93EF93FF9301
:1011900020910C0930910D0980910E0990910F0951
:1011A0002817390731F48091D1008F7D8093D100C9
:1011B00014C0E0910E09F0910F09E453F74F20811C
:1011C00080910E0990910F0901968F739927909342
:1011D0000F0980930E092093D600FF91EF919F9104
:1011E0008F913F912F910F900BBE0F900FBE0F90DC
:1011F0001F9018951F920F920FB60F9211240BB6E5
:101200000F922F933F938F939F93EF93FF93209190
:10121000B6093091B7098091B8099091B90928179A
:10122000390731F48091C9008F7D8093C90014C0C3
:10123000E091B809F091B909EA58F64F2081809100
:10124000B8099091B90901968F7399279093B909BC
:101250008093B8092093CE00FF91EF919F918F91D9
:101260003F912F910F900BBE0F900FBE0F901F90CC
:1012700018951F920F920FB60F9211240BB60F9272
:101280002F933F938F939F93EF93FF932091600A47
:101290003091610A8091620A9091630A2817390798
:1012A00031F48091C1008F7D8093C10014C0E09122
:1012B000620AF091630AE05EF54F20818091620A34
:1012C0009091630A01968F7399279093630A809394
:1012D000620A2093C600FF91EF919F918F913F91F9
:1012E0002F910F900BBE0F900FBE0F901F9018956F
:1012F0001F920F920FB60F9211240BB60F922F93DD
:101300003F934F935F936F937F938F939F93AF938D
:10131000BF93EF93FF938091300182FD07C08091CE
:10132000360166E678E00E94250702C0809136010A
:10133000FF91EF91BF91AF919F918F917F916F91AD
:101340005F914F913F912F910F900BBE0F900FBE69
:101350000F901F9018951F920F920FB60F921124A5
:101360000BB60F922F933F934F935F936F937F939F
:101370008F939F93AF93BF93EF93FF938091D00090
:1013800082FD07C08091D60060E179E00E942507C8
:1013900002C08091D600FF91EF91BF91AF919F91D4
:1013A0008F917F916F915F914F913F912F910F900E
:1013B0000BBE0F900FBE0F901F9018951F920F92AB
:1013C0000FB60F9211240BB60F922F933F934F93AA
:1013D0005F936F937F938F939F93AF93BF93EF939D
:1013E000FF938091C80082FD07C08091CE006AEB18
:1013F00079E00E94250702C08091CE00FF91EF9115
:10140000BF91AF919F918F917F916F915F914F911C
:101410003F912F910F900BBE0F900FBE0F901F901A
:1014200018951F920F920FB60F9211240BB60F92C0
:101430002F933F934F935F936F937F938F939F93DC
:10144000AF93BF93EF93FF938091C00082FD07C0DD
:101450008091C60064E67AE00E94250702C0809170
:10146000C600FF91EF91BF91AF919F918F917F91B6
:101470006F915F914F913F912F910F900BBE0F9005
:101480000FBE0F901F901895CF93DF93CDB7DEB7A7
:10149000A1970FB6F894DEBF0FBECDBF0E940F011B
:1014A00064EF71E080E090E00E94AD0380916502FE
:1014B000811145C010925702109256028FEF80930F
:1014C0005A0280935B0280935C0280935D0280935A
:1014D0005E0280935F0281E080936002109262025C
:1014E00010926102109259021092580280911308D2
:1014F00090911408892B31F484E592E090931408BC
:1015000080931308E0915202F0915302309721F03A
:1015100084E592E09583848384E592E0909353027E
:1015200080935202109264021092630284E192E06E
:10153000909355028093540281E080936502E0917C
:101540005402F09155020480F581E02D84E592E08B
:1015500019958FE992E0909357028093560286EC9A
:1015600091E09093620280936102E0915402F091C5
:1015700055020284F385E02D84E592E019950097E9
:1015800001F19C0140E050E060E472E48FE090E003
:101590000E94FF0C8091180890911908A0911A08D8
:1015A000B0911B0882179307A407B50710F4DA015E
:1015B000C9018093180890931908A0931A08B09352
:1015C0001B088FEF80935A0290EB90935B0290EF91
:1015D00090935C028093150884E291E0AFE6B2E05C
:1015E0002FE932E0FC0145915591659174916C931E
:1015F00011965C93119712964C931297049613963A
:101600002A173B0779F781E090E090936E02809370
:101610006D02E0910508F09106089C010090110808
:1016200002C0220F331F0A94E2F72083E0910108E1
:10163000F09102081082E0910308F091040823E081
:10164000208310921208E0910708F0910808408169
:101650009C0100900D0802C0220F331F0A94E2F78C
:10166000242B2083E0910708F091080840819C0119
:1016700000900E0802C0220F331F0A94E2F7242BB9
:101680002083E0910708F091080840819C010090B8
:101690000F0802C0220F331F0A94E2F7242B208385
:1016A000E0910708F091080820810090100802C01E
:1016B000880F991F0A94E2F78095822380830FE9AF
:1016C00012E031EFE32E37E0F32EF80110821182A1
:1016D00012823396EE16FF06C9F70E943F0768ECA8
:1016E00070E080E090E00E94AD0380E090E02FEF9A
:1016F000F801892B31F420831182128281E090E07D
:1017000005C010822183128280E090E00D5F1F4FA0
:10171000E016F10669F70E943F0782E392E00E941B
:1017200064088DE00E9459088AE00E94590819A2B5
:101730007E01F1E2EF0EF11C13E575E080E090E030
:101740002AE0822E912CA12CB12C6E012DE1C20E2B
:10175000D11C612FA50194010E94DD0C8AE0289F15
:1017600010191124E1E0EE1AF1081A3014F4105D9A
:1017700001C0195CF7011083122F732FCA01EC14FA
:10178000FD0439F7C7010E9464088DE00E945908E2
:101790008AE00E9459080E94C2020E941507FBCFEE
:1017A000E5E1F8E08FEF80831282118214861386C0
:1017B0008FEF9FEFDC0187839087A187B287089521
:1017C000CF92DF92EF92FF92E1EFF7E01382128265
:1017D00088EEC82E83E0D82EE12CF12CC482D5826D
:1017E000E682F78266E272E07183608384E69AE0C3
:1017F0009587848780E29AE09787868785EC90E0DA
:10180000918B808B84EC90E0938B828B80EC90E0CA
:10181000958B848B81EC90E0978B868B82EC90E0AB
:10182000918F808F86EC90E0938F828F44E0448F7D
:1018300033E0358F27E0268F95E0978F81E080A3F6
:10184000EEEFF9E013821282C482D582E682F7823B
:1018500071836083AAEBB9E0B587A487A6E7B9E0F6
:10186000B787A687ADECB0E0B18BA08BACECB0E055
:10187000B38BA28BA8ECB0E0B58BA48BA9ECB0E045
:10188000B78BA68BAAECB0E0B18FA08FAEECB0E026
:10189000B38FA28F448F358F268F978F80A3E4E577
:1018A000F9E013821282C482D582E682F7827183C4
:1018B0006083A0E1B9E0B587A487ACECB8E0B78756
:1018C000A687A5EDB0E0B18BA08BA4EDB0E0B38B03
:1018D000A28BA0EDB0E0B58BA48BA1EDB0E0B78BEF
:1018E000A68BA2EDB0E0B18FA08FA6EDB0E0B38FD4
:1018F000A28F448F358F268F978F80A3EAEAF8E076
:1019000013821282C482D582E682F7827183608359
:1019100066E678E07587648762E278E077876687B5
:1019200065E371E0718B608B64E371E0738B628BB4
:1019300060E371E0758B648B61E371E0778B668B9C
:1019400062E371E0718F608F66E371E0738F628F85
:10195000448F358F268F978F80A3FF90EF90DF9075
:10196000CF9008950E94D00B0C94E00BF8940C9447
:101970005B0DDB018F939F930E94250DBF91AF916B
:10198000A29F800D911DA39F900DB29F900D1124D9
:10199000089597FB072E16F4009407D077FD09D021
:1019A0000E94300D07FC05D03EF4909581959F4F25
:1019B0000895709561957F4F0895A1E21A2EAA1B94
:1019C000BB1BFD010DC0AA1FBB1FEE1FFF1FA217EF
:1019D000B307E407F50720F0A21BB30BE40BF50BEC
:1019E000661F771F881F991F1A9469F76095709575
:1019F000809590959B01AC01BD01CF010895052E06
:101A000097FB1EF400940E94160D57FD07D00E940C
:101A1000DD0C07FC03D04EF40C94160D5095409548
:101A2000309521953F4F4F4F5F4F0895909580958A
:101A3000709561957F4F8F4F9F4F08950E944C0D79
:101A4000B7FF0895821B930B08950E944C0DA59F2C
:101A5000900DB49F900DA49F800D911D11240895A9
:101A6000AA1BBB1B51E107C0AA1FBB1FA617B707C4
:101A700010F0A61BB70B881F991F5A95A9F78095E0
:101A80009095BC01CD010895EE0FFF1F881F8BBFFD
:101A90000790F691E02D1994A29FB001B39FC00169
:101AA000A39F700D811D1124911DB29F700D811D8A
:0A1AB0001124911D0895F894FFCF52
:101ABA00000000000E010E010E0143023F023C022B
:101ACA0000000000F901B501B30143023F02B00171
:101ADA00D303000000007C06E6000507C906E906F4
:101AEA00BE0650726F6772616D20537461727465BD
:021AFA00640086
:00000001FF
