:100000000C9453000C947B000C947B000C947B00AC
:100010000C947B000C947B000C947B000C947B0074
:100020000C947B000C947B000C947B000C947B0064
:100030000C947B000C947B000C947B000C947B0054
:100040000C94E8020C947B000C94AE020C947302A6
:100050000C947B000C947B000C947B000C947B0034
:100060000C947B000C947B0000000000250028000D
:100070002B0000000000240027002A0004040404D0
:100080000404040402020202020203030303030342
:10009000010204081020408001020408102001021F
:1000A00004081020320311241FBECFEFD8E0DEBFBA
:1000B000CDBF11E0A0E0B1E0E2E9F9E002C00590B7
:1000C0000D92A031B107D9F721E0A0E1B1E001C064
:1000D0001D92A33CB207E1F710E0C3E5D0E004C0F5
:1000E0002197FE010E94C104C235D107C9F70E94C1
:1000F0006D030C94BE040C940000CF92DF92EF923B
:10010000FF920F931F93CF93DF936C01EB017B0161
:10011000E40EF51E00E010E0CE15DF0561F06991F8
:10012000D601ED91FC910190F081E02DC601099579
:10013000080F191FF1CFC801DF91CF911F910F91C7
:10014000FF90EF90DF90CF90089508950F931F9345
:10015000CF93DF93FC01A685B7858D01005C1F4F0F
:10016000E8018881998101968F739927AD014E5BD3
:100170005F4FEA012881398182179307D1F3E801A3
:1001800028813981A20FB31F6C93A685B785A05C27
:10019000BF4F11969C938E93A689B7892C9181E0CD
:1001A00090E0078C02C0880F991F0A94E2F7822B17
:1001B0008C9381E081A30488F589E02D808180649F
:1001C000808381E090E0DF91CF911F910F9108959E
:1001D000FC0181A1882329F0A489B5898C9186FF2F
:1001E000FBCF11A20895FC01A485B585FD01E05C5B
:1001F000FF4F208131813296808191812817390704
:1002000079F080819181A80FB91F8C912081318173
:100210002F5F3F4F2F7333273183208390E0089562
:100220008FEF9FEF0895DC011C96ED91FC911D97D7
:10023000DF01A05CBF4F2D913C91119712968D91DB
:100240009C9111972817390739F08D919C91E80FEF
:10025000F91F808190E008958FEF9FEF0895FC01D2
:1002600024853585F901E05CFF4F808191813296CC
:1002700020813181821B930B8F739927089581EA26
:1002800091E00C942F018F929F92AF92BF92CF92E8
:10029000DF92EF92FF9228E130E0812C912C50E820
:1002A000A52EB12C75016401C622D722E822F922BD
:1002B0005D9ACD28CE28CF2809F41EC0000000008A
:1002C000000000000000000000000000000000002E
:1002D000000000000000000000000000000000001E
:1002E000000000000000000000000000000000000E
:1002F000000000005D980DC000000000000000003C
:10030000000000000000000000005D9800000000F8
:100310000000B694A794979487942150310909F06E
:10032000C1CFFF90EF90DF90CF90BF90AF909F90A4
:100330008F9008958F929F92AF92BF92CF92DF924B
:10034000EF92FF92CF93DF936630710509F052C0B0
:10035000F894FC019C01285D3F4FC190D190E19041
:10036000F19088E190E040E050E060E870E04A0100
:100370005B018C209D20AE20BF205E9A89288A28B0
:100380008B2809F41EC000000000000000000000DF
:10039000000000000000000000000000000000005D
:1003A000000000000000000000000000000000004D
:1003B00000000000000000000000000000005E9847
:1003C0000DC0000000000000000000000000000060
:1003D000000000005E980000000000007695679520
:1003E00057954795019709F0C2CFE217F30709F037
:1003F000B4CF68C06530710581F4F894EC017C01DC
:1004000088E2E80EF11C69917991899199910E9495
:100410004301CE15DF05B9F755C06330710509F00A
:1004200055C0F894FC019C01285D3F4FC190D190CC
:10043000E190F19088E190E040E050E060E870E009
:100440004A015B018C209D20AE20BF205B9A892849
:100450008A288B2809F41EC000000000000000005C
:10046000000000000000000000000000000000008C
:10047000000000000000000000000000000000007C
:10048000000000000000000000000000000000006C
:100490005B980DC00000000000000000000000009C
:1004A0000000000000005B9800000000000076954E
:1004B000679557954795019709F0C2CFE217F30763
:1004C00009F0B4CF789480E090E002C08FEF9FEF06
:1004D000DF91CF91FF90EF90DF90CF90BF90AF90E2
:1004E0009F908F9008951F920F920FB60F92112434
:1004F0002F933F938F939F93EF93FF9320915901F5
:1005000030915A0180915B0190915C012817390765
:1005100031F48091C1008F7D8093C10014C0E091BF
:100520005B01F0915C01E75EFE4F208180915B01F1
:1005300090915C0101968F73992790935C01809351
:100540005B012093C600FF91EF919F918F913F91A6
:100550002F910F900FBE0F901F9018951F920F9222
:100560000FB60F9211242F934F935F938F939F9306
:10057000EF93FF938091C00082FD1CC02091C600C4
:1005800080919D0190919E0101968F7399274091D2
:100590009F015091A0018417950771F0E0919D0192
:1005A000F0919E01E35AFE4F208390939E01809329
:1005B0009D0102C08091C600FF91EF919F918F91A4
:1005C0005F914F912F910F900FBE0F901F90189534
:1005D0001F920F920FB60F9211242F933F938F9378
:1005E0009F93AF93BF938091150190911601A091B5
:1005F0001701B09118013091140123E0230F2D371A
:1006000020F40196A11DB11D05C026E8230F029616
:10061000A11DB11D20931401809315019093160123
:10062000A0931701B09318018091100190911101CE
:10063000A0911201B09113010196A11DB11D8093EB
:10064000100190931101A0931201B0931301BF9177
:10065000AF919F918F913F912F910F900FBE0F906F
:100660001F901895E1EAF1E01382128288EE93E080
:10067000A0E0B0E084839583A683B78384E091E013
:10068000918380838DE591E09587848789E191E06E
:100690009787868785EC90E0918B808B84EC90E047
:1006A000938B828B80EC90E0958B848B81EC90E037
:1006B000978B868B82EC90E0918F808F86EC90E018
:1006C000938F828F84E0848F83E0858F87E0868F8D
:1006D00085E0878F81E080A30895CF93DF93CDB726
:1006E000DEB7C85CD1090FB6F894DEBF0FBECDBF30
:1006F000789484B5826084BD84B5816084BD85B5FD
:10070000826085BD85B5816085BD80916E00816008
:1007100080936E00109281008091810082608093AE
:1007200081008091810081608093810080918000B0
:100730008160809380008091B10084608093B100DB
:100740008091B00081608093B00080917A008460D5
:1007500080937A0080917A00826080937A00809101
:100760007A00816080937A0080917A00806880931B
:100770007A001092C1008AB1886E8AB91BB88AE4E7
:1007800090E00197F1F7E091B501F091B60181E0B9
:1007900090E09C010090C10102C0220F331F0A9417
:1007A000E2F72083E091B101F091B2011082E09173
:1007B000B301F091B40120E120831092C201E091D5
:1007C000B701F091B80140819C010090BD0102C0C9
:1007D000220F331F0A94E2F7242B2083E091B70104
:1007E000F091B80140819C010090BE0102C0220F2F
:1007F000331F0A94E2F7242B2083E091B701F09194
:10080000B80140819C010090BF0102C0220F331F3C
:100810000A94E2F7242B2083E091B701F091B8010C
:1008200020810090C00102C0880F991F0A94E2F74E
:10083000809582238083EDE9F0E02491E9E8F0E0FF
:100840008491882399F090E0880F991FFC01EE585D
:10085000FF4FA591B491FC01E859FF4F8591949108
:100860008FB7F894EC91E22BEC938FBF8E010F5F62
:100870001F4F88E2F80111928A95E9F766E070E06F
:10088000C8010E949A01F89478016E01F9E2CF0E36
:10089000D11CF70161917191819191917F010E9429
:1008A0004301EC14FD04A9F7789463E070E0C801FB
:1008B0000E949A016E01FAE2CF0ED11C81EA91E00A
:1008C0000E942F01181619060CF055C078012FB799
:1008D000F8948091150190911601A0911701B091A3
:1008E00018012FBF8093A9019093AA01A093AB0197
:1008F000B093AC01E091A101F091A2010680F781D3
:10090000E02D81EA91E0099597FD0FC0F7018193F1
:100910007F01EC15FD05D9F66981062E000C770BD9
:10092000CE0102960E949A0126C02FB7F8948091BA
:10093000150190911601A0911701B09118012FBFD8
:100940004091A9015091AA016091AB017091AC0155
:10095000841B950BA60BB70B4091A5015091A601E6
:100960006091A7017091A80184179507A607B707A2
:1009700008F4C0CFD1CF0E943F01A0CFF8940C94CF
:10098000C704EE0FFF1F0590F491E02D0994F89431
:02099000FFCF97
:1009920000000000A6007D002F01F3001301E80013
:00000001FF
